{
  "_format": "hh-sol-artifact-1",
  "contractName": "Raffle",
  "sourceName": "contracts/Raffle.sol",
  "abi": [
    {
      "inputs": [
        {
          "internalType": "address",
          "name": "vrfCoordinatorV2",
          "type": "address"
        },
        {
          "internalType": "bytes32",
          "name": "gasLane",
          "type": "bytes32"
        },
        {
          "internalType": "uint256",
          "name": "entranceFee",
          "type": "uint256"
        },
        {
          "internalType": "uint32",
          "name": "callbackGasLimit",
          "type": "uint32"
        },
        {
          "internalType": "uint64",
          "name": "subscriptionId",
          "type": "uint64"
        },
        {
          "internalType": "uint256",
          "name": "interval",
          "type": "uint256"
        }
      ],
      "stateMutability": "nonpayable",
      "type": "constructor"
    },
    {
      "inputs": [
        {
          "internalType": "address",
          "name": "have",
          "type": "address"
        },
        {
          "internalType": "address",
          "name": "want",
          "type": "address"
        }
      ],
      "name": "OnlyCoordinatorCanFulfill",
      "type": "error"
    },
    {
      "inputs": [],
      "name": "Raffle__NotEnoughEthEntered",
      "type": "error"
    },
    {
      "inputs": [],
      "name": "Raffle__NotOpen",
      "type": "error"
    },
    {
      "inputs": [],
      "name": "Raffle__TransferFailed",
      "type": "error"
    },
    {
      "inputs": [
        {
          "internalType": "uint256",
          "name": "currentBalance",
          "type": "uint256"
        },
        {
          "internalType": "uint256",
          "name": "numPlayers",
          "type": "uint256"
        },
        {
          "internalType": "uint256",
          "name": "raffleState",
          "type": "uint256"
        }
      ],
      "name": "Raffle__UpkeepNotNeeded",
      "type": "error"
    },
    {
      "anonymous": false,
      "inputs": [
        {
          "indexed": true,
          "internalType": "address",
          "name": "player",
          "type": "address"
        }
      ],
      "name": "RaffleEnter",
      "type": "event"
    },
    {
      "anonymous": false,
      "inputs": [
        {
          "indexed": true,
          "internalType": "uint256",
          "name": "requestId",
          "type": "uint256"
        }
      ],
      "name": "RequestedRaffleWinner",
      "type": "event"
    },
    {
      "anonymous": false,
      "inputs": [
        {
          "indexed": true,
          "internalType": "address",
          "name": "recentWinner",
          "type": "address"
        }
      ],
      "name": "WinnerPicked",
      "type": "event"
    },
    {
      "inputs": [
        {
          "internalType": "bytes",
          "name": "",
          "type": "bytes"
        }
      ],
      "name": "checkUpkeep",
      "outputs": [
        {
          "internalType": "bool",
          "name": "upkeepNeeded",
          "type": "bool"
        },
        {
          "internalType": "bytes",
          "name": "",
          "type": "bytes"
        }
      ],
      "stateMutability": "view",
      "type": "function"
    },
    {
      "inputs": [],
      "name": "enterRaffle",
      "outputs": [],
      "stateMutability": "payable",
      "type": "function"
    },
    {
      "inputs": [],
      "name": "getEntranceFee",
      "outputs": [
        {
          "internalType": "uint256",
          "name": "",
          "type": "uint256"
        }
      ],
      "stateMutability": "view",
      "type": "function"
    },
    {
      "inputs": [],
      "name": "getLastTimeStamp",
      "outputs": [
        {
          "internalType": "uint256",
          "name": "",
          "type": "uint256"
        }
      ],
      "stateMutability": "view",
      "type": "function"
    },
    {
      "inputs": [],
      "name": "getNumWords",
      "outputs": [
        {
          "internalType": "uint256",
          "name": "",
          "type": "uint256"
        }
      ],
      "stateMutability": "pure",
      "type": "function"
    },
    {
      "inputs": [],
      "name": "getNumberOfPlayers",
      "outputs": [
        {
          "internalType": "uint256",
          "name": "",
          "type": "uint256"
        }
      ],
      "stateMutability": "view",
      "type": "function"
    },
    {
      "inputs": [
        {
          "internalType": "uint256",
          "name": "index",
          "type": "uint256"
        }
      ],
      "name": "getPlayer",
      "outputs": [
        {
          "internalType": "address",
          "name": "",
          "type": "address"
        }
      ],
      "stateMutability": "view",
      "type": "function"
    },
    {
      "inputs": [],
      "name": "getRaffleState",
      "outputs": [
        {
          "internalType": "enum Raffle.RaffleState",
          "name": "",
          "type": "uint8"
        }
      ],
      "stateMutability": "view",
      "type": "function"
    },
    {
      "inputs": [],
      "name": "getRecentWinner",
      "outputs": [
        {
          "internalType": "address",
          "name": "",
          "type": "address"
        }
      ],
      "stateMutability": "view",
      "type": "function"
    },
    {
      "inputs": [],
      "name": "getRequestConfirmations",
      "outputs": [
        {
          "internalType": "uint256",
          "name": "",
          "type": "uint256"
        }
      ],
      "stateMutability": "pure",
      "type": "function"
    },
    {
      "inputs": [
        {
          "internalType": "bytes",
          "name": "",
          "type": "bytes"
        }
      ],
      "name": "performUpkeep",
      "outputs": [],
      "stateMutability": "nonpayable",
      "type": "function"
    },
    {
      "inputs": [
        {
          "internalType": "uint256",
          "name": "requestId",
          "type": "uint256"
        },
        {
          "internalType": "uint256[]",
          "name": "randomWords",
          "type": "uint256[]"
        }
      ],
      "name": "rawFulfillRandomWords",
      "outputs": [],
      "stateMutability": "nonpayable",
      "type": "function"
    }
  ],
  "bytecode": "0x6101606040523480156200001257600080fd5b50604051620017c5380380620017c58339818101604052810190620000389190620001ad565b858073ffffffffffffffffffffffffffffffffffffffff1660808173ffffffffffffffffffffffffffffffffffffffff1660601b81525050508573ffffffffffffffffffffffffffffffffffffffff1660c08173ffffffffffffffffffffffffffffffffffffffff1660601b815250508460e081815250508360a081815250508263ffffffff166101008163ffffffff1660e01b815250508167ffffffffffffffff166101208167ffffffffffffffff1660c01b815250506000600260006101000a81548160ff02191690836001811115620001195762000118620002b5565b5b0217905550426001819055508061014081815250505050505050506200036b565b6000815190506200014b81620002e9565b92915050565b600081519050620001628162000303565b92915050565b60008151905062000179816200031d565b92915050565b600081519050620001908162000337565b92915050565b600081519050620001a78162000351565b92915050565b60008060008060008060c08789031215620001cd57620001cc620002e4565b5b6000620001dd89828a016200013a565b9650506020620001f089828a0162000151565b95505060406200020389828a0162000168565b94505060606200021689828a016200017f565b93505060806200022989828a0162000196565b92505060a06200023c89828a0162000168565b9150509295509295509295565b6000620002568262000267565b9050919050565b6000819050919050565b600073ffffffffffffffffffffffffffffffffffffffff82169050919050565b6000819050919050565b600063ffffffff82169050919050565b600067ffffffffffffffff82169050919050565b7f4e487b7100000000000000000000000000000000000000000000000000000000600052602160045260246000fd5b600080fd5b620002f48162000249565b81146200030057600080fd5b50565b6200030e816200025d565b81146200031a57600080fd5b50565b620003288162000287565b81146200033457600080fd5b50565b620003428162000291565b81146200034e57600080fd5b50565b6200035c81620002a1565b81146200036857600080fd5b50565b60805160601c60a05160c05160601c60e0516101005160e01c6101205160c01c610140516113e5620003e060003960006107a7015260006106330152600061065601526000610612015260006105d60152600081816102b401526103b10152600081816102f1015261034501526113e56000f3fe6080604052600436106100a75760003560e01c806353a2c19a1161006457806353a2c19a146101895780635f1b0fd8146101b45780636e04ff0d146101df578063c1c244e81461021d578063e55ae4e814610248578063fd6673f514610285576100a7565b806309bc33a7146100ac578063115cbaf5146100d75780631fe543e3146101025780632cfcc5391461012b5780634585e33b14610135578063473f1ddc1461015e575b600080fd5b3480156100b857600080fd5b506100c16102b0565b6040516100ce9190610feb565b60405180910390f35b3480156100e357600080fd5b506100ec6102d8565b6040516100f99190610fd0565b60405180910390f35b34801561010e57600080fd5b5061012960048036038101906101249190610dc4565b6102ef565b005b6101336103af565b005b34801561014157600080fd5b5061015c60048036038101906101579190610cd4565b61051e565b005b34801561016a57600080fd5b5061017361071e565b6040516101809190610f09565b60405180910390f35b34801561019557600080fd5b5061019e610748565b6040516101ab9190610feb565b60405180910390f35b3480156101c057600080fd5b506101c9610757565b6040516101d69190610feb565b60405180910390f35b3480156101eb57600080fd5b5061020660048036038101906102019190610d21565b610764565b604051610214929190610f4d565b60405180910390f35b34801561022957600080fd5b50610232610811565b60405161023f9190610feb565b60405180910390f35b34801561025457600080fd5b5061026f600480360381019061026a9190610d6a565b61081b565b60405161027c9190610f09565b60405180910390f35b34801561029157600080fd5b5061029a610862565b6040516102a79190610feb565b60405180910390f35b60007f0000000000000000000000000000000000000000000000000000000000000000905090565b6000600260009054906101000a900460ff16905090565b7f000000000000000000000000000000000000000000000000000000000000000073ffffffffffffffffffffffffffffffffffffffff163373ffffffffffffffffffffffffffffffffffffffff16146103a157337f00000000000000000000000000000000000000000000000000000000000000006040517f1cf993f4000000000000000000000000000000000000000000000000000000008152600401610398929190610f24565b60405180910390fd5b6103ab828261086e565b5050565b7f0000000000000000000000000000000000000000000000000000000000000000341015610409576040517f066d781f00000000000000000000000000000000000000000000000000000000815260040160405180910390fd5b6000600181111561041d5761041c6112c5565b5b600260009054906101000a900460ff16600181111561043f5761043e6112c5565b5b14610476576040517f1425571c00000000000000000000000000000000000000000000000000000000815260040160405180910390fd5b6000339080600181540180825580915050600190039060005260206000200160009091909190916101000a81548173ffffffffffffffffffffffffffffffffffffffff021916908373ffffffffffffffffffffffffffffffffffffffff1602179055503373ffffffffffffffffffffffffffffffffffffffff167f0805e1d667bddb8a95f0f09880cf94f403fb596ce79928d9f29b74203ba284d460405160405180910390a2565b600061053860405180602001604052806000815250610764565b509050806105a75747600080549050600260009054906101000a900460ff166001811115610569576105686112c5565b5b6040517f584327aa00000000000000000000000000000000000000000000000000000000815260040161059e93929190611006565b60405180910390fd5b6001600260006101000a81548160ff021916908360018111156105cd576105cc6112c5565b5b021790555060007f000000000000000000000000000000000000000000000000000000000000000073ffffffffffffffffffffffffffffffffffffffff16635d3b1d307f00000000000000000000000000000000000000000000000000000000000000007f000000000000000000000000000000000000000000000000000000000000000060037f000000000000000000000000000000000000000000000000000000000000000060016040518663ffffffff1660e01b8152600401610697959493929190610f7d565b602060405180830381600087803b1580156106b157600080fd5b505af11580156106c5573d6000803e3d6000fd5b505050506040513d601f19601f820116820180604052508101906106e99190610d97565b9050807fcd6e45c8998311cab7e9d4385596cac867e20a0587194b954fa3a731c93ce78b60405160405180910390a250505050565b6000600260019054906101000a900473ffffffffffffffffffffffffffffffffffffffff16905090565b6000600163ffffffff16905090565b6000600361ffff16905090565b600060606000600260009054906101000a900460ff16600181111561078c5761078b6112c5565b5b600060018111156107a05761079f6112c5565b5b14905060007f0000000000000000000000000000000000000000000000000000000000000000600154426107d491906110e6565b119050600080600080549050119050600080471190508380156107f45750825b80156107fd5750815b80156108065750805b955050505050915091565b6000600154905090565b60008082815481106108305761082f6112f4565b5b9060005260206000200160009054906101000a900473ffffffffffffffffffffffffffffffffffffffff169050919050565b60008080549050905090565b6000808054905082600081518110610889576108886112f4565b5b602002602001015161089b9190611236565b905060008082815481106108b2576108b16112f4565b5b9060005260206000200160009054906101000a900473ffffffffffffffffffffffffffffffffffffffff16905080600260016101000a81548173ffffffffffffffffffffffffffffffffffffffff021916908373ffffffffffffffffffffffffffffffffffffffff1602179055506000600260006101000a81548160ff02191690836001811115610946576109456112c5565b5b0217905550600067ffffffffffffffff81111561096657610965611323565b5b6040519080825280602002602001820160405280156109945781602001602082028036833780820191505090505b50600090805190602001906109aa929190610a9f565b504260018190555060008173ffffffffffffffffffffffffffffffffffffffff16476040516109d890610ef4565b60006040518083038185875af1925050503d8060008114610a15576040519150601f19603f3d011682016040523d82523d6000602084013e610a1a565b606091505b5050905080610a55576040517fa1d04b3900000000000000000000000000000000000000000000000000000000815260040160405180910390fd5b8173ffffffffffffffffffffffffffffffffffffffff167f5b690ec4a06fe979403046eaeea5b3ce38524683c3001f662c8b5a829632f7df60405160405180910390a25050505050565b828054828255906000526020600020908101928215610b18579160200282015b82811115610b175782518260006101000a81548173ffffffffffffffffffffffffffffffffffffffff021916908373ffffffffffffffffffffffffffffffffffffffff16021790555091602001919060010190610abf565b5b509050610b259190610b29565b5090565b5b80821115610b42576000816000905550600101610b2a565b5090565b6000610b59610b5484611062565b61103d565b90508083825260208201905082856020860282011115610b7c57610b7b61135c565b5b60005b85811015610bac5781610b928882610caa565b845260208401935060208301925050600181019050610b7f565b5050509392505050565b6000610bc9610bc48461108e565b61103d565b905082815260208101848484011115610be557610be4611361565b5b610bf08482856111c3565b509392505050565b600082601f830112610c0d57610c0c611357565b5b8135610c1d848260208601610b46565b91505092915050565b60008083601f840112610c3c57610c3b611357565b5b8235905067ffffffffffffffff811115610c5957610c58611352565b5b602083019150836001820283011115610c7557610c7461135c565b5b9250929050565b600082601f830112610c9157610c90611357565b5b8135610ca1848260208601610bb6565b91505092915050565b600081359050610cb981611398565b92915050565b600081519050610cce81611398565b92915050565b60008060208385031215610ceb57610cea61136b565b5b600083013567ffffffffffffffff811115610d0957610d08611366565b5b610d1585828601610c26565b92509250509250929050565b600060208284031215610d3757610d3661136b565b5b600082013567ffffffffffffffff811115610d5557610d54611366565b5b610d6184828501610c7c565b91505092915050565b600060208284031215610d8057610d7f61136b565b5b6000610d8e84828501610caa565b91505092915050565b600060208284031215610dad57610dac61136b565b5b6000610dbb84828501610cbf565b91505092915050565b60008060408385031215610ddb57610dda61136b565b5b6000610de985828601610caa565b925050602083013567ffffffffffffffff811115610e0a57610e09611366565b5b610e1685828601610bf8565b9150509250929050565b610e298161111a565b82525050565b610e388161112c565b82525050565b610e4781611138565b82525050565b6000610e58826110bf565b610e6281856110ca565b9350610e728185602086016111d2565b610e7b81611370565b840191505092915050565b610e8f816111b1565b82525050565b6000610ea26000836110db565b9150610ead82611381565b600082019050919050565b610ec181611155565b82525050565b610ed081611183565b82525050565b610edf8161118d565b82525050565b610eee8161119d565b82525050565b6000610eff82610e95565b9150819050919050565b6000602082019050610f1e6000830184610e20565b92915050565b6000604082019050610f396000830185610e20565b610f466020830184610e20565b9392505050565b6000604082019050610f626000830185610e2f565b8181036020830152610f748184610e4d565b90509392505050565b600060a082019050610f926000830188610e3e565b610f9f6020830187610ee5565b610fac6040830186610eb8565b610fb96060830185610ed6565b610fc66080830184610ed6565b9695505050505050565b6000602082019050610fe56000830184610e86565b92915050565b60006020820190506110006000830184610ec7565b92915050565b600060608201905061101b6000830186610ec7565b6110286020830185610ec7565b6110356040830184610ec7565b949350505050565b6000611047611058565b90506110538282611205565b919050565b6000604051905090565b600067ffffffffffffffff82111561107d5761107c611323565b5b602082029050602081019050919050565b600067ffffffffffffffff8211156110a9576110a8611323565b5b6110b282611370565b9050602081019050919050565b600081519050919050565b600082825260208201905092915050565b600081905092915050565b60006110f182611183565b91506110fc83611183565b92508282101561110f5761110e611267565b5b828203905092915050565b600061112582611163565b9050919050565b60008115159050919050565b6000819050919050565b600081905061115082611384565b919050565b600061ffff82169050919050565b600073ffffffffffffffffffffffffffffffffffffffff82169050919050565b6000819050919050565b600063ffffffff82169050919050565b600067ffffffffffffffff82169050919050565b60006111bc82611142565b9050919050565b82818337600083830152505050565b60005b838110156111f05780820151818401526020810190506111d5565b838111156111ff576000848401525b50505050565b61120e82611370565b810181811067ffffffffffffffff8211171561122d5761122c611323565b5b80604052505050565b600061124182611183565b915061124c83611183565b92508261125c5761125b611296565b5b828206905092915050565b7f4e487b7100000000000000000000000000000000000000000000000000000000600052601160045260246000fd5b7f4e487b7100000000000000000000000000000000000000000000000000000000600052601260045260246000fd5b7f4e487b7100000000000000000000000000000000000000000000000000000000600052602160045260246000fd5b7f4e487b7100000000000000000000000000000000000000000000000000000000600052603260045260246000fd5b7f4e487b7100000000000000000000000000000000000000000000000000000000600052604160045260246000fd5b600080fd5b600080fd5b600080fd5b600080fd5b600080fd5b600080fd5b6000601f19601f8301169050919050565b50565b60028110611395576113946112c5565b5b50565b6113a181611183565b81146113ac57600080fd5b5056fea2646970667358221220836879c77fbf97d5af1011ee219d2971a7f54d33599fae625af9bf6044b1abfa64736f6c63430008070033",
  "linkReferences": {},
  "deployedLinkReferences": {}
}